:020000041000EA
:10000000002000082B0100100D0000008D010010E1
:1000100000000000000000000000000000000000E0
:100020000000000000000000000000008901001036
:10003000000000000000000089010010890100108C
:100040008901001089010010890100108901001048
:100050008901001089010010890100108901001038
:100060008901001089010010890100108901001028
:100070008901001089010010890100108901001018
:100080008901001089010010890100108901001008
:1000900089010010890100108901001089010010F8
:1000A00089010010890100108901001089010010E8
:1000B00089010010890100108901001089010010D8
:1000C00010B5064C2378002B07D1054B002B02D02E
:1000D000044800E000BF0123237010BD6005000844
:1000E0000000000030100010044B10B5002B03D0AE
:1000F0000349044800E000BF10BDC04600000000F6
:1001000064050008301000100230800803D0013070
:100110000238FCD1C046C0467047EFF3108072B67B
:10012000704780F3108870477047FFF7FDFF72B685
:100130000F4C104DAC4209DA21686268A368043B99
:1001400002DBC858D050FAE70C34F3E70A490B4AEF
:100150000020521A02DD043A8850FCDC08480949A4
:100160000860BFF34F8F00F09DFD00F0BDFCFEE77F
:10017000341000104C1000106005000868070008DB
:100180000000000808ED00E0FEE7FEE700B50420EF
:100190007146084202D0EFF3098001E0EFF30880D6
:1001A000043000F027FBFEE7014B18607047C046A3
:1001B00064070008044B1B681A00AC3212881B6AE3
:1001C0005043C0187047C046640700081D4B984252
:1001D0000FD010D840282FD005D8002830D01028B4
:1001E00028D019481EE0802828D080235B00984240
:1001F000F7D1144816E0154B984214D008D8A02324
:100200001B0698421CD0124B9842EAD1A0200BE06A
:10021000104B98420AD0104B984209D00F4B98428D
:10022000DFD10F487047A420C003FBE70D48F9E772
:100230000D48F7E70D48F5E70D48F3E70D48F1E7FE
:100240000020EFE706005200FF005200010000F01E
:10025000090000A0040000F0050000F0030000F019
:100260000100520002005200030052000100500041
:10027000020050000500520010B50020FFF79AFF61
:100280000A4B1C682300B0331B68C0180368002B9E
:100290000ADB074B1868FFF799FF012263689A6031
:1002A0009A68002AFCD110BD0248FCE764070008E8
:1002B0007C050008020050000D4B10B518600028A6
:1002C00004D0FE235B42038000234380094B1B685C
:1002D0001A004C321278002A08D04D331B78002BBC
:1002E00004D002220449002000F0E0F810BDC0460E
:1002F0008C050008640700084D01000810B502488D
:10030000FFF7DAFF10BDC04620050008064B1B684A
:10031000B0331B68C3181B68002B03DA89B2416035
:10032000002070470148FCE76407000801008A00CC
:100330000368002B04DA89B2C26081600020704734
:100340000048FCE701008A00064B1B68B0331B68BD
:10035000C3181B68002B03DAC36800200B607047CA
:100360000148FCE76407000801008A00024B1A6894
:10037000002A00D11860704790050008F0B52C24C1
:100380006043154C1F0024681D0A2018FF242540D7
:100390002740124C1B0C26680760346A4560836056
:1003A000AC36368877433F1907612F0080376D01DF
:1003B0007F01E71964190A4D47611F043B43641923
:1003C000236000238361059BC2610162002B01D081
:1003D0001B888381F0BDC0469005000864070008B3
:1003E00008100000F0B5836885B002AD2B80154B76
:1003F00002681B68066A9B8E476A9B18AB7043684D
:100400000095826AC16A040003930369C068FFF71C
:10041000B5FF00213B000A0000913000FFF7AEFF5E
:10042000216B280000F09AF90022AB5E002B06DB5E
:100430001F2213401E3A9A401300034A136005B06E
:10044000F0BDC0466407000800E100E0F7B52C25C8
:10045000134C684326686943341825690193711861
:10046000002D19D08869002818D12E68002E15DAC1
:100470006768012426004B689E40B44613689EB20C
:1004800063461B041E431660EA608C61BC40019BFE
:10049000A4B24B62AC60FEBD0248FCE70248FAE73A
:1004A0009005000804028A0007028A002C234343B7
:1004B00006480068C018C369934204D9036A002043
:1004C0009200D15070470248FCE7C04690050008F2
:1004D0000A028A0073B5002642690400D5680196B5
:1004E0002B0CB34221D01B0413601368194B006915
:1004F0001B68B0331B68C3181B68B34215DA01A927
:10050000FFF722FFB0420CD10198E26903681E0C8C
:10051000DBB29A4205D9226A9B009B58002B00D07F
:10052000984731002069FFF7F1FEADB2002D09D0E8
:1005300063691D6000251B68636AAB4205D098475C
:100540006562A56163691B6873BDA36A002BF8D05F
:100550009847F6E7640700082C2310B54343034A85
:100560001068C018FFF7B6FF10BDC0469005000820
:10057000F8B5194B0F001B681A002E321278824210
:1005800027D9002925D01F250A68154021D1190037
:10059000AC310C88114E60431C6AD2080419290042
:1005A0007868346000F0B4FC29002000FFF7AEFE4C
:1005B0003A0029003068FFF7BBFE041E07D1010096
:1005C0003068FFF7A3FE03002000002B00D0044892
:1005D000F8BD0448FCE7C04664070008940500081D
:1005E00001018A0003018A0010B5002A0DD10029FB
:1005F00014D10B4B1A681300AC331B885843136A91
:10060000C018084B1860080010BD002906D0064B22
:10061000196019005A60FFF7ABFFF5E70348F3E7ED
:1006200064070008940500082405000803018A00F7
:10063000F7B5184F04003B680191DE6833688342C8
:1006400026D90025A94202D1FFF767FD05003868C9
:100650000368002B1ADA1F22012322409340640909
:100660007268A4001419226813420DD09A432260C4
:1006700000240021FFF74AFE019B002B02D1280035
:10068000FFF74FFD2000FEBD034CF2E7034CF3E7FC
:10069000034CF7E794050008020188000301880075
:1006A00004018A000A4B1B68DB681A6882420DD974
:1006B00059681F23420918401E3B8340920050583E
:1006C0001840431E9841034BC01870470248FCE78E
:1006D000940500080001880004018A00144B30B51D
:1006E0001A680724130028331B781F2B15D883089A
:1006F0001D00A5432C1E0FD103342040A040814093
:1007000012689B002032D3180A00FF2181401C6828
:10071000624011406140196030BD802320401B06BB
:10072000184380239B011268C91889008850F3E799
:1007300064070008064B9A680300064810339B00C4
:10074000824202D1985899507047034AD058FBE72B
:1007500000ED00E00000000800000010F8B5060001
:100760000D0000283AD00023C05E002828DBB178B5
:10077000FFF7B4FF0024FF22032794460023F05E16
:10078000716883B21F40FF006646BA40890131405C
:10079000D243B940002815DB114E83089B009B19FA
:1007A000C026B6009F593A40114399510D4B9A68A3
:1007B0000D4B9A4202D12900FFF7BCFF2000F8BD83
:1007C0000A4CD8E70F263340083B064E9B089B0097
:1007D0009B19DE6932401143D961E7E7034CEDE72D
:1007E00000E100E000ED00E000000008010056001C
:1007F000FEE7000002680A4B10B51A6042685A60B2
:1008000082689A60C268DA6002691A6142695A6154
:1008100082699A61C269DA61FFF7EAFF10BDC046DA
:1008200040050008B0235B055A782120002A01D03A
:100830005878C0B27047B0235B059A89002A02D06D
:10084000988980B2704780204000FBE77FB5274B36
:1008500086000D00F458042901D0012927D1002079
:100860000FE0A3682B420BD1E36829001A685B688C
:1008700002920193039302A8236898471C4B1C60C3
:100880006469002C0BD01B4B9842EAD1012DE8D1B2
:10089000174B18481A68184B9A5104B070BD012DB7
:1008A000FBD1144B9842F3D0134B9C51F5E702292E
:1008B00006D10F4B1B68181EEFD01C6903E01C000B
:1008C0006369002BFBD10020002CE6D0A3682B42EB
:1008D00009D1E36829001A685B68029201930393C7
:1008E00002A8236898472469EEE7C046D0050008AF
:1008F000CC050008FF004200B8050008F2220E4BAC
:10090000D2011B68DB689A580260F022D2019A5823
:1009100042600A4A9A588260094A9A58C260094A53
:100920009A580261084A9A584261084A9A58826164
:10093000074A9B58C36170476407000804780000A9
:10094000087800000C78000010780000147800008F
:1009500018780000F0220E4B41681B68D201DB685A
:10096000995081680B4A9950C1680B4A99500169A6
:100970000A4A995041690A4A99508169094A99502D
:10098000C169094A99500168E83299507047C046D8
:100990006407000804780000087800000C78000064
:1009A000107800001478000018780000F7B53F4D6B
:1009B00007006B68002B4AD1FFF7AFFB6B68019013
:1009C000002B56D13A4E33681A0041321278002A71
:1009D00007D09B68E0331B68DB0602D53548FFF77C
:1009E0008DFFFFF728FF80235B00984246D1380037
:1009F00000F0A2FA002433681A0041321278002A6B
:100A000017D0002815D09B68E0331B68DB0610D593
:100A1000FFF708FF274B212808D032681300AC33BA
:100A2000198807234B43126A9B18DB681800FFF7ED
:100A300091FF0198FFF775FB002C0ED16B68002B1E
:100A400003D008210120FFF701FF2000FEBD012196
:100A50000800FFF7FBFE041EAED06B68002B03D02E
:100A600002210120FFF7F2FE134B9C42EDD0134C04
:100A7000EBE704210120FFF7E9FEA3E7326813004A
:100A8000B0331B68126A9B181B68002B0BDB042316
:100A90000B4A11690B431361012F02D030BF0020B4
:100AA000A8E720BFFBE70020034CA4E7D00500081F
:100AB000640700089805000805004200FF00420096
:100AC00000ED00E0C0228020064952008B58C0058E
:100AD0009B009B0803438B50802388581B060343CD
:100AE0008B5070470000264010B562B6034800F0F6
:100AF00059F90020FFF75AFFFBE7C046002000101D
:100B000010B50020FFF728FD10BD7047F8B5E023B1
:100B1000524C9B00E2580F23D0211A4093008900C9
:100B20001B19585807210840032860D0042861D0B9
:100B3000414248414A49404208404A494018002A37
:100B400067D1B223B1220321DB00D200E558A358BC
:100B5000A6581B0F360F0B400E4204D0A258120F9E
:100B60000A40012A01D1EA0701D4032B11D1B02395
:100B70003D4ADB00E658A158E558C904C90C00F00D
:100B80003BF9B3039B0B5843E901C90F013100F056
:100B900033F9E0239B00E3589B069B0FD840334B6F
:100BA0001860334B1C691969240A090E013100F0E1
:100BB00023F9304BE1B21860013100F01DF92E4BE2
:100BC000040018602D4B2E4918602E4BC01800F001
:100BD00013F9FA212C4B890018702C4BE01800F007
:100BE0000BF92B4B18602B4BC0031860F8BD2A493A
:100BF0000868A4E7C0211F20890059580140112925
:100C000001D0132902D18020000298E7FA20C00108
:100C100095E7013A012ABCD80327204A9E58204A6A
:100C200099589D58090F2D0F39403D4204D09D58C9
:100C30002D0F3D40012D01D1F50701D40329A8D185
:100C40009E5899589D587F2333401F26090A3140EA
:100C5000584300F0D1F8290C314098E700002640B5
:100C600000DC0BFF00366E0184050000C8000008A0
:100C700000002140CC000008C0000008D40000089B
:100C800040420F003F420F00DC000008E703000075
:100C9000D8000008D0000008C40000083C0600008E
:100CA000FC05000010B52448FFF77EFAB022E021D1
:100CB0003020224CD200A35889005B005B08A3506F
:100CC00063588343635080235B04A3501C4B1D4A2D
:100CD000E250A02204339201E250FF221A4BE2506C
:100CE000FFF7F0FEC02201215200A3588B43A3500E
:100CF000FFF70BFFFFF70AFFB0235B055A78002AC6
:100D000002D05B78212B03D10022104BDA605A60AD
:100D10000F4A80210320FFF767FC0E48FFF726FBF0
:100D20000D4B1B684D331B78002B02D00B48FFF78F
:100D300059FBFFF7E3FA10BD480F001000002640F2
:100D400084050000010002008C050000E000234043
:100D50002C050008E405000864070008FC0F0010DB
:100D6000024BD86F032318407047C046040021404F
:100D700010B5FFF7D2F90749074ACB6F1A40074B66
:100D80001343CB67102306490A681A42FCD0FFF7C9
:100D9000C8F910BD04002140FCFF00000100FA0565
:100DA0008800214070B50F4C0600FFF7B6F9E36FDD
:100DB0000500DB439B0701D1FFF7DAFFB0230A4AA6
:100DC0009B00D650E36F094A09491A40094B134367
:100DD000E36710230A681A42FCD02800FFF7A1F944
:100DE00070BDC0460400214000002140FCFF00000F
:100DF000880021400300FA05002243088B4274D387
:100E000003098B425FD3030A8B4244D3030B8B420B
:100E100028D3030C8B420DD3FF22090212BA030C14
:100E20008B4202D31212090265D0030B8B4219D3F5
:100E300000E0090AC30B8B4201D3CB03C01A524115
:100E4000830B8B4201D38B03C01A5241430B8B425D
:100E500001D34B03C01A5241030B8B4201D30B0346
:100E6000C01A5241C30A8B4201D3CB02C01A52416D
:100E7000830A8B4201D38B02C01A5241430A8B4230
:100E800001D34B02C01A5241030A8B4201D30B0219
:100E9000C01A5241CDD2C3098B4201D3CB01C01A33
:100EA000524183098B4201D38B01C01A524143093D
:100EB0008B4201D34B01C01A524103098B4201D32B
:100EC0000B01C01A5241C3088B4201D3CB00C01A98
:100ED000524183088B4201D38B00C01A5241430810
:100EE0008B4201D34B00C01A5241411A00D2014635
:100EF000524110467047FFE701B5002000F006F8A8
:100F000002BDC0460029F7D076E770477047C0465B
:100F100003001218934200D1704719700133F9E7AA
:100F2000F8B5C046F8BC08BC9E467047F8B5C04648
:100F3000F8BC08BC9E46704701B40248844601BC18
:100F4000604700BFA90200080000214000002540C2
:100F50000000014000003440000024400000314007
:100F60000000324000001F410000234000001140FB
:100F700010101010101010101010800019005500E3
:100F8000F0000501053B04101C0101000FC000002A
:100F90000004000001010101011D3A577896000884
:100FA0002000101208000000001F00000010000FB9
:100FB000002000023F06080E00080009000A000B8E
:100FC00024282C30340000001000000090000000A5
:100FD00088000000080000008000000004F000000D
:100FE00000F00000400200002005A000D001000138
:100FF0008001A0012000000010000000030000009C
:101000000100000001000000000000000503600076
:1010100004000000010000000000000001000000CA
:10102000060460000800000044070008010B0010DF
:10103000000000000000001000000008C0000000D8
:1010400054100010C0000008600400006005000893
:101050000802000000093D000048E80100127A0083
:1010600000093D000000D00700093D00A00F00006E
:1010700004000000E9000010C100001080B230B58B
:10108000C00020D0104B07221C682300AC331B8803
:101090005A43236AD31819680029FCDA3E210B4B06
:1010A000062519600A4B0B491960A3210A4BC90098
:1010B0005D500A4958505858206A12180020506054
:1010C0005A58002AFCDA30BD6407000804012640A3
:1010D000080126401E1F0000000026401C050000DD
:1010E00010B54378FF2B11D100F0CCF90400032098
:1010F00000F0A8F9C3685A68012311681943116008
:1011000011681942FCD1200000F0ACF910BDF7B510
:1011100000900020019100F095F93F4D06002B68EA
:101120001A004C33B03214681B780419002B5AD0C3
:1011300000F070F9070003281BD000F0A3F9374A2C
:10114000374B0500D358002B3EDA364A01213000D8
:1011500000F0A8F9002837D10198FFF78FFF009B16
:10116000002B3ED02368002BFCDB00F063F9040069
:101170002BE0062000F066F92B68B0331B68C0181E
:101180000368002B02DA284C2000FEBD002000F08E
:1011900081F9264B9842F6D00023254A190012689F
:1011A000012000F03FF90025A842ECD1002000F01A
:1011B00071F91E4A1F4B904203D09D42E3D0013586
:1011C000F4E79D42B9D1DEE7174C032F05D1012189
:1011D000002000F04FF90028F9D1280000F042F972
:1011E000D2E7154CF1E700F04DF90E4A0500012158
:1011F000300000F057F9002809D1009B002B08D0DF
:101200002368002BFCDB00F015F90400E5E7064C31
:10121000E3E7094CE1E7C046640700080000264008
:101220001C0500007C050008050052000101880033
:101230008C050008F049020001005000F0B56B4D2C
:1012400007242B6885B01A000390AC3212885443EF
:101250001A6A5B68A21801920293019B1B68002B1B
:10126000FBDA00F0F7F82A681300AC33198807237B
:101270004B43212800D08CE0116A5B180221D8680A
:101280000143D960D968C9072BD515001600D96864
:1012900001CD0836F46F8C46E96F41180019FF2420
:1012A0000F6824043F02274064460068A4B2000A85
:1012B0000006274307439020DF600B684C4F000176
:1012C0003B4003430B601368F16F5B1819680F40D4
:1012D000384318601368EA6F9A181268F26F9B1807
:1012E0001B68424D2A681300AC33198807234B430F
:1012F000126A9B1800225A6004233E4A11690B436C
:101300001361039B012B49D030BF019B1B68002B4D
:10131000FBDA00F09FF8212842D1296807220B0050
:101320000124AC331B8800205A430B6AD318DD68B4
:1013300025421BD0081D0D68C06F2D4E281805686A
:10134000DB6835401B0C1B061B0C2B4303600B009A
:101350000833D86F0B6818180B6A0568D318DB6858
:101360002E401B0E1B023343036020000B6A022138
:10137000D218D3688B43D3601C4B1A681300AC336C
:10138000198807234B43126A9B1800225A6005B044
:10139000F0BD126A9B18184ADA60A2E720BFB4E7D2
:1013A0000020029BFC331B698342E5D1A320134B31
:1013B0001349144A144FC0000E681D5814680F607A
:1013C00006271F503E20106010483E371F501F5800
:1013D000002FFCDA02980E4FFC3007610E60A3214B
:1013E000C9005D5001201460C6E7C04664070008CC
:1013F000FF00FFFF00ED00E0980500080000264018
:1014000008012640040126401E1F00001C050000A4
:10141000AAAAAAAA01B40248844601BC604700BF38
:10142000610D001001B40248844601BC604700BF52
:101430004D04001001B40248844601BC604700BF5F
:101440007902001001B40248844601BC604700BF25
:10145000B501001001B40248844601BC604700BFDA
:101460002508001001B40248844601BC604700BF53
:101470002301001001B40248844601BC604700BF4C
:101480003106001001B40248844601BC604700BF29
:101490001B01001001B40248844601BC604700BF34
:1014A000A506001001B40248844601BC604700BF95
:1014B00031030010000000000000000000000000E8
:1014C000000000000000000000000000000000001C
:1020000000780408D12200100D00000045230010C4
:102010004523001045230010452300100000000058
:10202000000000000000000000000000E167001058
:10203000412300100000000081680010E5680010D6
:1020400041230010412300104123001041230010C0
:1020500041230010412300104123001041230010B0
:1020600041230010412300104123001041230010A0
:102070004123001041230010412300104123001090
:1022800041230010412300104123001010B5054CDC
:10229000237833B9044B13B10448AFF30080012312
:1022A000237010BD384C000800000000B8800310F7
:1022B00008B5034B1BB103490348AFF3008008BDC9
:1022C000000000003C4C0008B880031070477047C5
:1022D000FFF7FCFF72B6144C144DAC4209DA2168CA
:1022E0006268A368043BA2BFC858D050FAE70C3418
:1022F000F3E70F490F4A00209142BCBF41F8040B9D
:10230000FAE70D480D490860BFF34F8F02F03AF924
:1023100002F014F9FFF7DBFF15F064FD0CF068FA2A
:1023200015F04CFDFEE70000C8A60510E0A605105C
:10233000384C0008C82E02080020000808ED00E014
:10234000FEE7FEE700B504207146084202D0EFF335
:10235000098001E0EFF3088004300BF0FFFAFEE79C
:102360000230800803D001300238FCD100BF00BF2A
:102370007047EFF3108072B6704780F31088704793
:1023800038B50B4D0B4928460BF056FA0A4C636BD7
:102390001D600A4802F042FB204602F007F902F0F5
:1023A00009F902F00FF9064804F030F838BD00BF13
:1023B00088AB01103926001070A9011015240010F7
:1023C000C523001008B5054B984200D008BD044A4B
:1023D0000121002004F020F8F8E700BFBF00010051
:1023E000644C000808B5094B1B78022B02D003F09F
:1023F00099F900B108BD0021084603F0ADF90028A5
:10240000F8D0034816F034FAF4E700BFC52B0208F1
:1024100058AB011070B582B044F2070398427FD0E8
:102420000C4624D843F20203984271D00FD841F2EF
:102430000103984257D042F20403984264D0B0F5A9
:10244000805F49D00146604816F08AF949E043F2BE
:102450001203984260D044F20603984268D043F2D7
:1024600006039842EED1594816F002FA39E045F2D7
:102470000203984271D01FD844F21003984253D0FF
:1024800045F20103984261D044F208039842D9D141
:102490004F4B1B88ADF804309DF80530032B02D854
:1024A0004C4AD35CEBB94C4816F0E2F94B4B002296
:1024B0001A70FFF797FF14E045F20C03984254D0CE
:1024C00045F2170398424CD045F203039842B9D124
:1024D000434816F0CDF904E0424816F0C9F9FFF779
:1024E00081FF02B070BD0B78012B05D0032B07D004
:1024F0003D4816F0BDF9F4E73C4816F0B9F9F0E7AD
:102500003B4816F0B5F9ECE73A4816F0B1F9E8E7C0
:10251000394816F0ADF9E4E7384816F0A9F9E0E7D4
:10252000374816F0A5F9DCE7364816F0A1F9D8E7E8
:10253000354B1B78022B05D0344816F099F902F080
:102540003DF8CEE7324816F093F9CAE70A88204BE7
:102550001A80304816F08CF9C3E72F4816F088F936
:10256000BFE72E4816F084F9BBE70B890F2B06D086
:102570002B4816F07DF9E06852F036F8B1E78E8806
:10258000284816F0EDF8002506E02368595D264836
:1025900016F0E6F80135ADB2B542F6D3234816F091
:1025A000DFF8002505E02368585D16F0F1F80135E5
:1025B000ADB2B542F7D31E4816F05AF91D4B186854
:1025C00005F040F8D4E700BFC4AE0110A0AC011084
:1025D000E4CE0108C02B020838AD0110644C00089D
:1025E000E8AD0110B4AB01101CAC0110D4AB01106C
:1025F000FCAB011038AC01106CAC0110CCAC01107C
:10260000ECAC01100CAD0110C52B020880AD01101F
:102610005CAD0110A4AD0110C4AD011018AE0110E5
:102620008CAE011050AE01107CAE011080AE0110D6
:10263000F8AB0110F8DE010808B503F023FB08BD74
:1026400008B5034B01221A70024806F0E1F908BDF3
:10265000654C0008E8CE010810B50C4C204606F089
:102660007BF94FF40051204606F050FA204606F060
:10267000CFF900220649204606F04CFA0123072232
:102680000021204606F056FA10BD00BFE8CE010832
:102690004126001008B5114B1B78DBB9104816F025
:1026A000E7F8104B1A6893692021C3F888109369E2
:1026B0008022C3F888260C4B1A68D2F80832C3F37C
:1026C0000803D2F80822C2F3C032D342F3D10BF090
:1026D00067FD08BD00200BF069FFFAE7F42B020844
:1026E00090AB0110782C02087C2C020808B5FFF78B
:1026F00047FEFFF7B1FF62B608BD000000B583B02A
:102700000446284816F0B4F8274B1C6013E0274B0A
:102710001B689B692022C3F88C202DE0234B1B688B
:102720009B692022C3F8842026E0204B1B689B690C
:102730008022C3F88826FFF7ADFF49F00DFE1C4B41
:102740001B78002BF7D01A4B00221A70194B1B78FC
:10275000022BDCD0184B1B88ADF804309DF80530F7
:10276000032B03D8154AD35C022BD7D00F4B1B6821
:102770009B692022C3F88820114B1B78012B0AD0BB
:10278000002BD2D0022BD6D1084B1B689B6980222C
:10279000C3F88426CFE7054B1B689B698022C3F8EA
:1027A0008C26C8E784AB0110F8DE0108782C0208FB
:1027B000654C0008C52B0208E4CE0108C02B0208B6
:1027C000644C0008F8B506460F4601F06BFA054662
:1027D000064C3B4632460146204600F0F1FB41F2F2
:1027E000B0622946204615F030FBF8BD684C000861
:1027F00008B52A480DF04EFA4FF0FF300DF036FACA
:102800004FF07F400DF03CFA00200DF083FA0DF000
:102810000FFB02200DF06EFA0522842120480DF0F6
:1028200001FD20480DF036FA1E220A211E480DF047
:10283000F9FC1E480DF02EFA28220A211C480DF042
:10284000F1FC1C480DF026FA34220A211A480DF03A
:10285000E9FC1A480DF01EFA43220A2118480DF02F
:10286000E1FC18480DF016FA55220A2116480DF021
:10287000D9FC16480DF00EFA6B220A2114480DF00F
:10288000D1FC14480DF006FA85220A2112480DF0F9
:10289000C9FC01210846FFF795FF08BDACFC0110FB
:1028A000F0AF011090D1011008B00110E8DD011067
:1028B00014B001101CEC011024B00110B020021063
:1028C00034B00110F84B021044B00110288D0210F2
:1028D00054B0011010DA021064B0011010B52B4C86
:1028E00020460DF0D7F94FF0FF300DF0BFF94FF053
:1028F0007F400DF0C5F900200DF00CFA0DF098FAAC
:1029000002200DF0F7F90522842121480DF08AFC00
:1029100020460DF0BFF9192205211E480DF082FC5A
:102920001D480DF0B7F9282205211C480DF07AFC4E
:102930001B480DF0AFF9372205211A480DF072FC43
:1029400019480DF0A7F94922052118480DF06AFC35
:1029500017480DF09FF95D22052116480DF062FC25
:1029600015480DF097F97322052114480DF05AFC13
:1029700013480DF08FF98D22052112480DF052FCFD
:1029800001210846FFF71EFF10BD00BFACFC01107F
:1029900068AF01107CAF01100C0E02108CAF01105B
:1029A000903602109CAF01101C5A0310ACAF0110FE
:1029B000546C0210C0AF011078B30210D0AF0110F8
:1029C00088140310E0AF011008B54D480DF062F90E
:1029D0004FF07F400DF054F94FF0FF300DF046F905
:1029E00000200DF097F900200DF0A4F90DF020FA69
:1029F00002200DF07FF90522842142480DF012FCDF
:102A000000200DF077F91E2200213F480DF00AFC4E
:102A100002200DF06FF92D2284213C480DF002FCBC
:102A200001200DF067F93C2240F2071138480DF003
:102A3000F9FB01200DF07EF900200DF05BF94B222F
:102A4000002134480DF0EEFB04200DF073F9002056
:102A50000DF050F95A2200212F480DF0E3FB02201F
:102A60000DF068F900200DF045F9692200212B488E
:102A70000DF0D8FB4FF07F400DF002F9AF2340F28C
:102A80000712782100200DF09BFE4FF0FF300DF073
:102A9000F7F803200DF0B2F8AF2340F207127821C7
:102AA00000200EF0DFF8782340F20712AF2100205B
:102AB0000EF0D8F84FF07F400DF0E2F84FF0FF3005
:102AC0000DF0D4F800200DF035F902200DF012F9C8
:102AD00000200DF01FF98722842111480DF0A2FB80
:102AE00002200DF007F904200DF014F9962284213C
:102AF0000C480DF097FB01210846FFF763FE08BD67
:102B0000ACFC011074B00110A0B00110B4B0011001
:102B1000CCB00110E4B00110FCB0011010B10110F4
:102B20002CB1011040B101102DE9F043DDB03A4B5A
:102B30005AAF93E8030087E8030058AE03F1080298
:102B400092E8030086E803000DF5AC7903F110026A
:102B500092E8030089E803000DF5A878183393E89C
:102B6000030088E803004FAC2C4D0FCD0FC42B6839
:102B700023702B4B4BAC0FCB84E80F0040F21D129F
:102B8000284903A815F061F927480DF083F84FF0A4
:102B90007F400DF075F84FF0FF300DF067F8002022
:102BA0000DF0B8F800200DF0C5F80DF041F9022045
:102BB0000DF0A0F8052284211C480DF033FB3846A7
:102BC0000BF0BEFE30460BF0BBFE48460BF0B8FEE5
:102BD0004FA815F067FE164B009303460E223946A8
:102BE0004FA80DF091FD204615F05CFE114B0093AF
:102BF00003460E22314620460DF086FD01230022B9
:102C0000414603A80DF066FC01210846FFF7DAFDF6
:102C10005DB0BDE8F08300BFE0AE011074B10110FB
:102C200088B1011098B10110ACFC011054B1011031
:102C3000342700084027000830B583B04FF07F40AC
:102C40000DF01EF84FF0FF300DF010F800200DF0E1
:102C500061F800200DF06EF80DF0EAF86F4C204698
:102C60000DF018F802200DF045F8052288216C4877
:102C70000DF0D8FA20460DF00DF802200DF03AF8CC
:102C80005522442167480DF0CDFA02200DF032F8AC
:102C90005522CC2164480DF0C5FA02200DF02AF827
:102CA000A322442161480DF0BDFA02200DF022F864
:102CB000A322CC215E480DF0B5FA01200CF09EFF56
:102CC00019237D2219460A200DF0CCFF02200CF0BA
:102CD00095FF23237D2219460A200DF0C3FF032010
:102CE0000CF08CFF2D237D2219460A200DF0BAFF2F
:102CF00004200CF083FF37237D2219460A200DF0B3
:102D0000B1FF05200CF07AFF41237D2219460A20ED
:102D10000DF0A8FF06200CF071FF4B237D22194611
:102D20000A200DF09FFF01200CF068FF5023A8221D
:102D3000142110460DF096FF02200CF05FFF502387
:102D4000B422142110460DF08DFF03200CF056FF25
:102D50005023C022142110460DF084FF04200CF0F3
:102D60004DFF5023CC22142110460DF07BFF05208F
:102D70000CF044FF5023D822142110460DF072FFAE
:102D800006200CF03BFF5023E422142110460DF0E6
:102D900069FF07200CF032FF5023F0221421104667
:102DA0000DF060FF02200CF029FFB42501950024EE
:102DB00000940A231A46A02144200CF067FA0195DA
:102DC000009414231A46A02144200CF05FFA0195C8
:102DD00000941E231A46A02144200CF057FA0195B6
:102DE000009428231A46A02144200CF04FFA0195A4
:102DF000009432231A46A02144200CF047FA052300
:102E00000093A0234FF483726C2192200EF056F8A9
:102E100001210846FFF7D6FC03B030BDACFC011021
:102E200000AF011018AF011020AF011028AF011042
:102E300030AF011010B54FF07F400CF021FF4FF084
:102E4000FF300CF013FF00200CF064FF00200CF0AA
:102E500071FF0CF0EDFF2A4C20460CF01BFF022006
:102E60000CF048FF0522842126480DF0DBF92046AE
:102E70000CF010FF02200CF03DFF552244212248A7
:102E80000DF0D0F902200CF035FF5522CC211F485F
:102E90000DF0C8F91E22332144200CF015FC192234
:102EA000332144200CF010FC1422332144200CF078
:102EB0000BFC0F22332144200CF006FC0A223321A4
:102EC00044200CF001FC1E2332223321CC200CF0D4
:102ED0003FFD192328223321CC200CF039FD142387
:102EE0001E223321CC200CF033FD0F23142233217A
:102EF000CC200CF02DFD01210846FFF763FC10BD2E
:102F0000ACFC011040AF011058AF011060AF0110D0
:102F100070B51D4815F0ACFC0123022200210420ED
:102F200005F0F0F9012306221946032005F0EAF91D
:102F30000123062219464FF0011005F0E3F90CF0C9
:102F4000A7FF142000F028F8012000F02DF800243D
:102F50000E4E33689B690225C3F884500C4B53F81E
:102F60002430984733689B69C3F888500134094B73
:102F7000A3FB0423EB4003EB43035A00A31ADCB288
:102F8000002004F075FDE3E7B8B20110782C0208C8
:102F9000B8230008ABAAAAAA10B5044600F052F95B
:102FA000204600F003FA10BD08B520B100F06CFD1A
:102FB00020B1002008BD00F097FDF9E70120F9E7F6
:102FC000F8B507460E4614461D4633B94CB1631E8C
:102FD000DBB2012B0AD9EDB9F8BD0120FFF7E4FF00
:102FE000F4E73146384600F0F1FBF4E700213846BB
:102FF00000F008FA012C04D00321304600F002FA58
:10300000E9E70121384600F0FDF90221304600F0E1
:10301000F9F9F1E70020FFF7C7FFDDE708B5002366
:1030200006220121144805F06DF900230622012132
:10303000124805F067F900231A461946104805F0B2
:1030400061F90023062201214FF0051005F05AF91D
:103050000023062201210B4805F054F90023062223
:103060000121094805F04EF9002306220121022022
:1030700005F048F908BD00BF03000C000200050080
:1030800003000500040005000600050008B504F073
:1030900065FB014B186008BD1863000808B504F013
:1030A0005DFB024B1B68C01A08BD00BF1863000817
:1030B0007047000030B587B00D4D00230493039393
:1030C0000824029401934FF0FF330093094B0A4AFE
:1030D0004FF44021284605F0FDFF0849284606F038
:1030E000BBFA074B1B689B69C3F8084607B030BDA5
:1030F000FCDE010802000C0001000C00002D310173
:10310000782C0208034B1B689B690822C3F8082629
:10311000704700BF782C0208034B1B689B6908228C
:10312000C3F80426704700BF782C020808B5014692
:10313000014806F049FB08BDFCDE010810B582B06D
:10314000064C0146204606F03FFB01A9204606F04A
:10315000D5FA9DF8040002B010BD00BFFCDE0108E6
:1031600010B582B00C460023019300930A46014635
:10317000024806F08DFB204602B010BDFCDE0108BF
:10318000034B1B689B69D3F89002C0F3C0007047E3
:10319000782C02082DE9F04180460E461746104D66
:1031A0002B689B690824C3F804467020FFF7BEFF14
:1031B0004046FFF7BBFF2A689369C3F80846936946
:1031C000C3F804467220FFF7B1FF39463046FFF7D7
:1031D000C7FF2B689B69C3F80846BDE8F08100BFB4
:1031E000782C020800B583B002AB03F8011D012260
:1031F0001946FFF7CFFF03B05DF804FBF8B50746AB
:103200000E460F4D2B689B690824C3F804467020B6
:10321000FFF78CFF3846FFF789FF2A689369C3F8E8
:1032200008469369C3F804467320FFF77FFF3046D2
:10323000FFF784FF2B689B69C3F80846F8BD00BF01
:10324000782C020838B50F4D2B689A690424546015
:103250009A694021C2F884129B691022C3F8842223
:10326000FFF728FF2B689A690821C2F804169A69AB
:10327000C2F884429B692022C3F88422FFF706FF2C
:1032800038BD00BF782C020810B5434C6F220021D6
:10329000204614F0FEFD621C404B1A6004F14E0201
:1032A0003F4B1A6022343F4B1C60FFF7EFFEFFF7E5
:1032B00067FF28B1FFF7F2FE0328F8D9012010BDFF
:1032C000FFF7F6FE00217220FFF798FF00F00F00D5
:1032D000022801D00220F2E74021FFF783FF0021FE
:1032E0000F20FFF78BFF10F0800F01D10320E6E7DE
:1032F00002210B20FFF776FF08222B490120FFF760
:1033000049FFD1210720FFF76DFF02210820FFF7B9
:1033100069FFC2210920FFF765FF03210420FFF7A1
:1033200061FF01210320FFF75DFF00210320FFF76C
:1033300059FF0A2004F012FB002400E01C46012182
:103340000520FFF74FFF642004F008FB0321052050
:10335000FFF748FF322004F001FB0F210520FFF7A3
:1033600041FF322004F0FAFA00210F20FFF746FF58
:1033700010F0400F07D1631C9BB2042CDED1032B4D
:1033800007D800209BE740210220FFF72BFF2346B0
:10339000F5E7052093E700BF286300081C630008D9
:1033A0002063000824630008BCB2011010F1090F6B
:1033B00010DB10F1040F14DB052815DD0A2816DDDB
:1033C0000F2817DD142817DD282801DD3C2303E032
:1033D0005A2301E04FF49663084A1380084A138089
:1033E00070474FF46173F7E74FF41673F4E74FF447
:1033F000A573F1E7DC23EFE7B423EDE7986300085A
:103400009A6300082DE9F84F06460D46047848B146
:10341000BB4B984209D101270024FFF737FE4FF03C
:10342000000882E10127FF24F7E70027F5E714F001
:10343000400F4FD0C02100EB030E49B214F0100F23
:103440004AD04FF0300941EA090114F0040F46D088
:103450004FF00C0941EA090114F0010F42D04FF07E
:10346000030941EA09018EF8001014F0800F3CD1E5
:1034700002210BEB020E49B214F0200F37D04FF0AF
:103480000C0941EA090114F0080F33D04FF030095C
:1034900041EA0901013A92B214F0020F2DD06FF007
:1034A0003F0941EA09018EF8001001339BB2202B3D
:1034B00000F228810FB934780136032DF5D801A127
:1034C00051F825F02F34001001350010AB350010F5
:1034D000553600108021AEE74FF02009B3E74FF0DA
:1034E0000809B7E74FF00209BBE70321C1E74FF036
:1034F0000809C6E74FF02009CAE76FF07F09D0E757
:1035000014F0400F3BD0802100EB030E49B214F0C1
:10351000100F36D04FF0200941EA090114F0040FD2
:1035200032D04FF0080941EA090114F0010F2ED002
:103530004FF0020941EA09018EF8001014F0800FE3
:1035400028D101210BEB020E49B214F0200F23D039
:103550004FF0080941EA090114F0080F1FD04FF09D
:10356000200941EA0901013A92B214F0020F19D080
:103570006FF07F0941EA09018EF8001095E74021BC
:10358000C2E74FF01009C7E74FF00409CBE74FF04F
:103590000109CFE70221D5E74FF00409DAE74FF040
:1035A0001009DEE74FF04009E4E714F0400F3BD08C
:1035B000C02100EB030E49B214F0100F36D04FF0CB
:1035C000300941EA090114F0040F32D04FF00C0920
:1035D00041EA090114F0010F2ED04FF0030941EA2E
:1035E00009018EF8001014F0800F28D101210BEB97
:1035F000020E49B214F0200F23D04FF00C0941EA1B
:10360000090114F0080F1FD04FF0300941EA0901F9
:10361000013A92B214F0020F19D06FF03F0941EA5B
:1036200009018EF8001040E74021C2E74FF0100971
:10363000C7E74FF00409CBE74FF00109CFE70321BB
:10364000D5E74FF00409DAE74FF01009DEE74FF055
:103650004009E4E714F0400F3BD0802100EB030E5B
:1036600049B214F0100F36D04FF0200941EA090199
:1036700014F0040F32D04FF0080941EA090114F0A8
:10368000010F2ED04FF0020941EA09018EF8001017
:1036900014F0800F28D103210BEB020E49B214F075
:1036A000200F23D04FF0080941EA090114F0080F58
:1036B0001FD04FF0200941EA0901013A92B214F0FB
:1036C000020F19D06FF07F0941EA09018EF800104E
:1036D000EBE6C021C2E74FF03009C7E74FF00C0915
:1036E000CBE74FF00309CFE70221D5E74FF00C09F4
:1036F000DAE74FF03009DEE76FF03F09E4E700BF9B
:10370000FFFF0F10C8F1AF031BB2594203F00302D1
:1037100001F0030158BF4A429B1026498A5C0AF80F
:10372000032008F101081FFA88F8B8F1AF0F3AD862
:10373000C8EBC809C8EB0919DFF888A009EB0A0B28
:103740006F220021584614F0A4FB0BF1010B1A4B19
:10375000C3F800B009F1480050440630174B186018
:1037600009F12009CA440AF1020A154BC3F800A066
:10377000202200239BE6C4EBC403C4EB03136F2297
:10378000104919440A20FFF705FD07210220FFF721
:1037900029FD0134A4B2AF2CEDD90B4B1C88FFF7E7
:1037A0007DFC844201D90024F5E7FFF781FCBDE8E8
:1037B000F88F00BFC4B201101C630008206300082A
:1037C0002463000868DF0108986300082DE9F047CA
:1037D00006460D46FFF75AFCD2210920FFF702FDED
:1037E00000249CE040220CEB010552B213F0100FB4
:1037F00007D019F0100F11D04FF0200A03E0C022BB
:10380000F1E74FF0100A42EA0A0213F0040F08D061
:1038100019F0040F12D04FF0080A04E04FF0300AFC
:10382000F1E74FF0040A42EA0A0213F0010F08D050
:1038300019F0010F1AD04FF0020A04E04FF00C0A01
:10384000F1E74FF0010A42EA0A022A7013F0800FF2
:103850000FD101220EEB000552B213F0200F0FD052
:1038600019F0200F19D04FF0080A0BE04FF0030AAF
:10387000E9E719F0800F01D10322EBE70222E9E723
:103880004FF0040A42EA0A0213F0080F08D019F0B8
:10389000080F14D04FF0200A04E04FF00C0AF1E7B3
:1038A0004FF0100A42EA0A02013880B213F0020F08
:1038B00008D019F0020F1ED06FF07F0303E04FF025
:1038C000300AEFE7402313432B70013189B23546AC
:1038D0003E46202912D8771C33786E1C95F800904C
:1038E00083EA090313F0400F3FF47CAF19F0400F57
:1038F00085D0802277E76FF03F03E4E7C4F1AF03A0
:103900001BB2594203F0030201F0030158BF4A42BF
:103910009B1030498A5C08F803200134A4B2AF2C14
:103920004ED8C4EBC407C4EB0717DFF8B89007EB19
:1039300009086F220021404614F0ABFA08F1010E8D
:10394000254BC3F800E007F1480CCC440CF1060C01
:10395000224BC3F800C007F12008C84408F1020850
:103960001F4BC3F8008020200021B2E7C4EBC40540
:10397000C4EB05151B4B1D446F2229460A20FFF797
:1039800009FC07210220FFF72DFCC4F1AF0343F32C
:103990008D032B44002283F822206F2229460A201F
:1039A000FFF7F8FB07210220FFF71CFC0134A4B24B
:1039B000AF2CDBD90C4B1C88FFF770FB844201D97C
:1039C0000024F5E7FFF774FBC2210920FFF70AFC8A
:1039D000BDE8F087C4B201101C6300082063000832
:1039E0002463000868DF01089A63000870B50023AB
:1039F00008E0134A11685522CA5412490968CA548A
:103A000001339BB2202BF4D9002415E004F003020B
:103A1000A6080D4D2B680D498A5C9A556F220C49FA
:103A20000A20FFF7B7FB07210220FFF7DBFB2B681B
:103A300000229A550134A4B2AF2CE7D970BD00BF63
:103A40001C6300082063000824630008C4B201104E
:103A50002863000808B5002304E00A4A0021D15475
:103A60000133DBB2152BF8D900210420FFF7BAFB94
:103A70006F2204490A20FFF78DFB07210220FFF780
:103A8000B1FB08BD2863000838B5164C23689B6954
:103A90001022C3F88822142003F060FFFFF732FBE6
:103AA00023689A690821C2F808169A694021C2F869
:103AB00088129B690425C3F888520A2003F04EFF40
:103AC00023689B69C3F884520A2003F047FF2368E8
:103AD0009B69C3F888520A2003F040FFFFF7D4FB2C
:103AE00038BD00BF782C020838B5FFF77FFFFFF71D
:103AF000B1FF1E2003F032FF2E4D2B689B6940243E
:103B0000C3F88442322003F029FF2B689B69C3F875
:103B1000884200210F20FFF771FB10F0400F46D0C4
:103B200000210B20FFF75EFB01210320FFF75AFB6A
:103B300003210520FFF756FB01210520FFF752FB6B
:103B4000322003F00BFF80210420FFF74BFB002104
:103B50000520FFF747FB01210720FFF743FB1E204D
:103B600003F0FCFEFFF7D8FA2C462A68936910216F
:103B7000C3F8841293694022C3F88422142003F00E
:103B8000EDFE2B689A690821C2F804169A6904218F
:103B9000C2F884129B692025C3F888521E2003F0C6
:103BA000DDFE23689B69C3F88452002038BD0420E1
:103BB000FCE700BF782C020808B54FF40041034829
:103BC0000AF0D8FF02480CF0FBF808BD9C6300081F
:103BD0000453031008B5012003F044F9014B1860A9
:103BE00008BD00BF9CE3000808B500231A4619462B
:103BF0000248006803F06CF808BD00BF9CE30008B1
:103C000008B54FF0FF31024B186803F049FA08BDC0
:103C10009CE3000808B504F059F808BD704700009F
:103C200000B583B0002201921346164916480CF0E5
:103C30004BFA02A9012341F8043D0EF01FFA0FF0E0
:103C400007F890B9B0224FF4847100200FF00BFEFA
:103C5000B0224FF4847100200FF031FE0B49002098
:103C60000FF018FE03B05DF804FB4FF48472B0212E
:103C700000200FF0F8FD4FF48472B02100200FF007
:103C80001EFEEBE770790310287A0310D02300089A
:103C9000012904D108B5FFF7C1F9002008BD4FF094
:103CA000FF30704700487047A0E3000808B500F0F7
:103CB000CFF800F007F800F0BDF800F02DF800F0A4
:103CC0003FF808BD08B5124A136899684FF0804064
:103CD000C1F800049868B3F87010435843F47F4368
:103CE0004350126892F86F1003238B4092F86C10C7
:103CF00092F86E0081400B43916843F00043C1F895
:103D000000349368D3F80034024804F023FC08BD63
:103D1000782C0208C8B2011008B5074804F01AFC54
:103D2000064B1B6893F83D20332A03D99B68002279
:103D3000C3F8CC2C08BD00BFCCB20110782C02080F
:103D400010B5264C264A0021204607F0CFF825481A
:103D500004F000FC244A0121204607F0C7F823485C
:103D600004F0F8FB224804F0F5FB04F54074214A06
:103D70000421204607F0BAF81F4804F0EBFB1F4A65
:103D80000621204607F0B2F81D4804F0E3FB1D4A67
:103D90000721204607F0AAF81B4804F0DBFB1B486C
:103DA00004F0D8FB1A4804F0D5FB1A4804F0D2FB03
:103DB000194804F0CFFB194804F0CCFB184804F074
:103DC000C9FB184804F0C6FB174804F0C3FB1748AA
:103DD00004F0C0FB164804F0BDFB10BD00003240EB
:103DE000A4B30110D8B30110DCB3011010B401105A
:103DF000F8B201106CB30110A0B3011034B301107C
:103E000068B30110FCB2011030B30110D0B2011040
:103E1000D4B20110D8B20110DCB20110E0B201102E
:103E2000E4B20110E8B20110ECB20110F0B20110DE
:103E3000F4B20110044B332242F208015A5042F20C
:103E400010015A50704700BF00003140FEE70000EB
:103E500070B582B09621002009F0D2FD09F070FD06
:103E600000283BD001200AF0C7FA01200AF02CF804
:103E7000724A536C23F47F4343F468535364536C86
:103E8000C3F307233A2B46D06D4B1B6893F83C20B5
:103E900032B16C49D1F8802322F03002C1F880237E
:103EA0001968D3F884208B5823F47F438B50644ADD
:103EB00013681868D3F88010435823F07F4343F009
:103EC0008073435013681868D3F88010435823F464
:103ED0007F434350136893F83B5026E009F020FDE0
:103EE000584BD3F8803113F0010F06D1554AD2F860
:103EF0000C3523F00043C2F80C35524BD3F80C2597
:103F000042F00042C3F80C25D3F80C2542F0010220
:103F1000C3F80C25A6E7536C23F0005323F4685331
:103F200043F468535364AFE7013DDDB16C1E444B6D
:103F30001B6893F83B309C42F6D2424E05F27F1448
:103F400056F8243023F0405343F0005346F8243011
:103F5000012009F0C3FC56F8243023F0004346F852
:103F60002430E1E70021012008F0AAFE344B1B6851
:103F700093F83C30002B43D0324BD3F8803313F00E
:103F80000F0F43D02F4BD3F8882522F0405242F038
:103F90000052C3F88825D3F8802522F00042C3F8E8
:103FA0008025D3F88C2522F00042C3F88C2500210F
:103FB000084608F085FE224B1B6893F83C3033B16D
:103FC000204AD2F8803323F00F03C2F8803306F082
:103FD0003BFC1D4D002400942346224621462846E2
:103FE00007F0AAF90094234622460121284607F04B
:103FF000A3F9124A136843F008031360134C2DE031
:1040000040F2AC71124809F075FCB5E7002008F0E9
:1040100085FE40F211139842B4D1094B1B6893F806
:104020003C30002BAED0074AD2F8803323F00F0388
:1040300043F00103C2F88033A4E700BF000027402B
:10404000782C0208000026400000324040420F0059
:1040500014B40110012009F041FC013CA84B1B697C
:1040600013F0040F01D1002CF4D1002C00F03181A9
:104070000023002B40F02F81A24AD2F8003523F014
:10408000030343F00103C2F800359F4C236819680D
:10409000D3F884208B5823F47F438B50236819680E
:1040A000D3F880208B5823F07F438B502368196806
:1040B000D3F880208B5823F47F438B5000210120BC
:1040C00008F0FEFD236893F83C3043B18D4AD2F8E6
:1040D000803323F00F0343F00103C2F88033002143
:1040E000084608F0EDFD0021022008F0E9FD00215E
:1040F000032008F0E5FD0021042008F0E1FD8348DD
:1041000008F032FE002840F0EA80814808F014FFF1
:10411000002840F0E8807C4B1B6893F83C2032B1CB
:104120007849D1F8802322F00F02C1F8802393F858
:104130003C3033B1734AD2F8803323F03003C2F8F5
:1041400080330021012008F0BBFD7249012008F0F6
:1041500055FF002840F0CB8042F21071012008F09A
:10416000E1FF002840F0C780674B1B6893F83C20B4
:10417000012A08D96349D1F8842322F00F0242F0C2
:104180000102C1F8842393F83C20012A06D95D4935
:10419000D1F8842322F03002C1F8842393F83C3014
:1041A000012B06D9574AD2F8843343F00043C2F8B2
:1041B0008433554B1B6893F83C20022A06D9514999
:1041C000D1F8882322F00F02C1F8882393F83C200D
:1041D000022A08D94B49D1F8882322F0300242F054
:1041E0001002C1F8882393F83C30022B06D9454AC7
:1041F000D2F8883343F00043C2F88833424B1B683F
:1042000093F83C20032A08D93E49D1F88C2322F0A8
:104210000F0242F00102C1F88C2393F83C20032ADC
:1042200006D93849D1F88C2322F03002C1F88C230A
:1042300093F83C30032B06D9324AD2F88C3343F042
:104240000043C2F88C332F4CD4F8043523F00043DC
:10425000C4F80435D4F8043523F4407323F0010383
:10426000C4F80435D4F8043523F47F03C4F80435C6
:10427000D4F8043543F00043C4F8043500200AF0B4
:1042800037FA1F4A136823F440731360D4F80C35CF
:1042900043F00043C4F80C35D4F80C3543F0010367
:1042A000C4F80C356421002009F0AAFB00F062F884
:1042B000194804F04FF9194804F04CF9184804F073
:1042C00049F9184804F046F9174804F043F902B0D8
:1042D00070BD164BCDE60520FFF7B8FDCCE60420F7
:1042E000FFF7B4FD11E70420FFF7B0FD13E703204B
:1042F000FFF7ACFD30E70320FFF7A8FD34E700BF70
:104300000000274000002640782C020840B401102D
:10431000400D030068B4011054B4011058B40110EA
:104320005CB4011060B4011064B4011002004A00D2
:1043300008B5044809F0ECFD08B1002008BD0248AA
:10434000FCE700BFF02300080000020610B504F0EF
:10435000FFF80446FFF7AAFC0CB1204610BDFFF79A
:10436000E7FF0446F9E708B5012007F073FA08BD36
:104370007047000030B4634BD3F8802302F00F0283
:1043800002F1D00153F8213003F00703032B1ED0B4
:10439000042B1FD0CBB15C4B002A46D1594AD2F82E
:1043A000900500F00100D2F88815C1F30171D2F830
:1043B000882512F0405F1ED0524AD2F88825C2F3F9
:1043C0000172012A18D0002216E0504BE4E7504B4E
:1043D0001B68E1E702F1C0034A4951F8233003F0BA
:1043E0001F03112B04D0132B02D04FF4FA43D3E751
:1043F0004FF40043D0E7012202B108B9032917D1D5
:10440000404AD2F88015C1F31101D2F88405C0F3F7
:104410000C00D2F88025C2F300620132B3FBF0F346
:1044200001FB03F3B3FBF2F302E0013A012A32D9B4
:10443000344AD2F88023C2F30112D340354A1360C4
:10444000354AD2F89010C1F3072101311269120EDA
:104450000132B3FBF2F231480260B3FBF1F3304AB0
:104460001360304A136003F5742202F23F222E4992
:10447000A1FB0212C2F387422C490A7003F2E73310
:104480002B4AA2FB03239B092A4A1360DB032A4A17
:10449000136030BC70471B4902F5C87051F82040CA
:1044A00004F0010402F5C07551F82500C0F3017055
:1044B00051F8251011F0405F09D02946114D55F8EB
:1044C0002110C1F30171012902D0002100E0012176
:1044D00001B10CB90328ABD10A4C02F5C07254F8F3
:1044E000221001F07F0154F82200C0F3042054F898
:1044F0002220C2F3044201FB03F3B3FBF0F3B3FB4E
:10450000F2F395E70000264000366E0100127A00B3
:10451000102400081424000800002140182400087A
:104520000C2400082024000883DE1B4328240008F4
:10453000D34D6210242400081C24000808B50D483F
:1045400006F006FBFFF714FFFFF714FF00221146E9
:10455000032007F0EDF9084806F0C2FF074B1B687F
:1045600093F84D3013B906F0C1FB08BD044807F0BD
:104570002FF8F8E7A8BE011058FA0008782C0208B6
:1045800070B4011008B5FDF7F4FE074AD2F8883080
:1045900043F47003C2F88830BFF34F8FBFF36F8FBF
:1045A000FDF7EBFE08BD00BF00ED00E008B500F030
:1045B000D1F808BD08B500F039F908BD08B549F0D3
:1045C000D3F808BD08B500F02FFA08BD08B50848B3
:1045D00001F09CF9074800F0CDFF074800F036FADB
:1045E000064800F049FA064801F0F8FE08BD00BF91
:1045F0002CAB0110F4A90110B8A90110D0A9011029
:1046000034AB011070477047002070470048704776
:10461000110016000048704711001600004870474E
:10462000110016000048704711001600004870473E
:10463000110016000048704711001600004870472E
:104640001100160000487047110016000020704746
:10465000004870471100160000487047110016000E
:10466000704708B534F036F808BD08B53AF08EFE4C
:1046700008BD08B548F018FE08BD08B533F05AFE6D
:1046800008BD000008B5024809F08AFC08BD00BF5B
:104690002C24000808B50348034B036009F038FCDC
:1046A00008BD00BF2C240008AD46001038B5012914
:1046B00003D0082937D023483AE0234B1B78012B3D
:1046C00037D0032007F0E6F9204B984233D001F0B1
:1046D000C5FC012831D0022048F03EFC0546FDF71C
:1046E00048FE1B4B186047F039FE0446062826D0CA
:1046F000022D09D10220FFF7B4FF032C01D0052CB5
:1047000008D138B9002013E00120FFF7AAFF022CDE
:1047100000D028B10E4B1868FDF72FFE094807E0BE
:1047200009F0E4FCF6E70A4B1868FDF726FE0020C6
:1047300038BD0448FCE70348FAE70248F8E70020E0
:10474000F6E700BFFF004200F42B020801018800D9
:10475000F0FB0008002856D02D4A1268002A54D0D9
:1047600070B52C4B186001F087FD002307E02A4A42
:10477000FF2102F8131002EB430251700133032BA7
:10478000F5D9244B1B689B6ADB7E13F0020F36D1F0
:10479000204B1B685B6A002B33D098470020002316
:1047A0001E4A13701E4A13701E4A136070BDDA6AE7
:1047B000D368956803FB04F202EB4202500003EB5E
:1047C00043035A000021284413F063FB114E336861
:1047D000DB6A586804EB8403DD00282200212844AA
:1047E00013F057FB3368DB6A5B68FF225A510134D0
:1047F000084B1B689A6A127FA242D8D8C8E70024E7
:10480000F6E70948CBE7084870470748704700BFFC
:10481000D8FB0008ECFB0008F82B0208CC2B0208A0
:10482000BC2B0208D42B0208010016002DE9F04130
:1048300098B0734B1C68002C00F0DF80A16AB1F8BF
:1048400016E01EF0030F40F0C2800EF10C06B6B267
:104850008F8907EB47031D01ADB24B8903EB830240
:10486000D00080B2CA8812F0030F40F0B5800C323D
:1048700092B2D4F8308098F820C0BEF1170F40F201
:10488000B08098F81CE00EF1FF3E1FFA8EFE1CFB74
:104890000EFCADF80460ADF806C0ADF80850ADF8F8
:1048A0000A70ADF80C005B00ADF80E30ADF81020CA
:1048B0004B895B00ADF812304822002106A813F0A6
:1048C000E8FA504B059301AB079304238DF822308F
:1048D00023691B681BB1099323695B680A93236BE7
:1048E0001A7F8DF83220DA89ADF820205A89ADF888
:1048F0002C209A89ADF82E2003228DF83020042236
:104900008DF831201B89ADF85830236B93F8203097
:104910008DF85C30236B9A7F8DF83420DA7F8DF828
:1049200035205B7F8DF83330374B1B6803B19847D8
:10493000334B1B681B6B1B8913F0010F54D1304B99
:104940001B681B6B1B8913F0020F50D12C4B1B688B
:104950001B6B1B8913F0080F4CD10BA848F060FBB0
:104960000346E0B9264B1B681B6B1A69069259680F
:1049700089B10B460DF1360220311E685D689C68D6
:10498000D868166055609460D060103310328B4246
:10499000F3D11B88138005A848F0EAFA034693B9BF
:1049A0001A4A01211170164A1268926A127E12F098
:1049B000050F02D016490020087012F00A0F02D02D
:1049C000144A00211170184618B0BDE8F0812EF08D
:1049D00003061036B6B23BE722F00302103292B261
:1049E00047E74FF0030E52E748F0A1FAA7E748F077
:1049F000ACFAABE748F0A2FAAFE7074BE3E700BF3A
:104A0000ECFB0008AD4C0010DCFB0008F42B0208A6
:104A1000C52B0208F22B0208FF001600014B18609C
:104A2000704700BFD8FB000808B5FFF733FE034B03
:104A3000034A1A60034B044A1A6008BDDCFB0008F5
:104A400095460010E0FB00088546001018B1034AA7
:104A50001060002070470248704700BFF4FB000858
:104A60000100160008B5034B1B6803B198470020EE
:104A700008BD00BFF8FB000830B108B5034A10605C
:104A8000034800F0B1F808BD02487047FCFB00087D
:104A9000654A00100100160030B583B00446037863
:104AA000032B0BD0374B1B689B6A1B7E13F0020F46
:104AB00002D02378042B58D003B030BD314B1B6893
:104AC0009B6ADB7E13F0020FECD04378807843EAD8
:104AD000002001F0AFF82B4B1B689A6A127F8242CC
:104AE000E0D9DB6A5B6800EB8000C5002B445B7A91
:104AF000002BD7D0B4F80130ADF800309DF801306C
:104B0000032B0DD8204AD35C033B032B08D8DFE8E6
:104B100003F0021A20261D4B1B68611C1C48984795
:104B2000184B1B68DB6A5B681D4400236B72B4F88A
:104B30000130ADF804309DF80530032BB2D8124A8D
:104B40000221D154AEE7114B1B68611C11489847F4
:104B5000E6E70E4B1B68611C0F489847E0E70B4BDC
:104B60001B68611C0D489847DAE70D4B1A78E3780B
:104B70009A42A1D10B4B1B78032B9DD100F0B4FDC1
:104B80009AE700BFECFB0008C02B0208D8FB000826
:104B900008000100090001000A0001000B000100EB
:104BA000D02B0208F42B020800B583B012238DF835
:104BB00004300389ADF802308389ADF80030094B29
:104BC0001B7813F0010F03D129B9C0684FF00CFD19
:104BD00003B05DF804FB8DF8051068464FF0E4FC67
:104BE000F6E700BFBC2B020820B330B40446002314
:104BF000184600E00133134A1268D26A11680A7934
:104C000015469A4207D930B90A6852F82320A242C1
:104C1000F0D10120EEE778B94B799A420FD20B68B8
:104C200043F82540074B1B68DB6A1A681379013388
:104C3000137102E004487047002030BC70470348FD
:104C4000FBE700BFECFB00080100160003001600A4
:104C500070B506460D460020044606E01B6853F872
:104C600024302946304698470134064B1B68DB6ADE
:104C70001B681A79A24204D9034A127812F0010F74
:104C8000ECD170BDECFB0008BC2B0208837933B972
:104C90000023052B05D8C25C2AB90133F9E70020AF
:104CA0007047002070470120704700002DE9F04355
:104CB00089B004460D46A64A137843F001031370E9
:104CC00044F20403984200F0668200F2858041F2CB
:104CD0000403984200F0D8833DD841F20103984282
:104CE00000F0368227D941F20203984200F0408258
:104CF00041F20303984240F04981964B1A68936A47
:104D00005978002940F042812978002940F03E81FD
:104D1000297A51B9116BC889DE898F4AD6801B8ADE
:104D200093800B69034413606A60894A137803F027
:104D3000FE0313702AE1B0F5805F40F02781854BB8
:104D40001F68BE6AF37E13F0030F40F04781834B68
:104D500002221A701AE143F21203984200F0DB813A
:104D60000BD943F21903984200F00881B0F5804F47
:104D700040F00C81FFF76CFF08E142F20403984217
:104D800040F00481764B1B6813F0010F40F0FE8069
:104D9000704E33689B6A93F903308DF8143000230A
:104DA0008DF815308DF8163005A84DF099F8336858
:104DB0009B6A93F904308DF8143001238DF8153077
:104DC000FF238DF8163005A84DF08AF8644A136861
:104DD00043F001031360D9E044F20B03984200F062
:104DE00075821AD945F20203984200F0FF826CD90D
:104DF00045F20303984200F03A8346F201039842D9
:104E000040F0C480534B1B689B6A1B7E13F0030F5A
:104E100000F0BC80FFF71CFFB8E044F207039842A3
:104E200000F0DC8114D944F20803984200F03F827C
:104E300044F20A03984240F0A980464B1B689B6AE3
:104E40001B7E13F0030F00F0A180FFF701FF9DE030
:104E500044F20603984240F099803E4B1B689B6ADF
:104E60001B7E03F00503052B00F02582384B1B78D1
:104E700013F0010F00F08A803A4B1B78012B00F0F1
:104E80001D82032B00F01E82022B7FD1354B0022A6
:104E90001A70304B1B685B68334A1178C1EBC10252
:104EA00003EB42039A79002A70D09B88002B6DD0C7
:104EB0002E4B1B78002B69D1012000F04DFC0028FF
:104EC00064D1284B01221A7060E044F2100398422A
:104ED00000F0848145F20103984257D11D4B1B68B5
:104EE0009B6ADB7E13F002030BD00A88ADF8042026
:104EF0009DF80520032A04D81D498A5C012A00F088
:104F00002882002B40F034822B88ADF808309DF8C1
:104F10000930032B02D8164A0221D1546A78298815
:104F2000144B23F812106B78134A0021D154094B0B
:104F30001A68936AD97E11F0010F03D05B7F012BB1
:104F400000F01D8229462046FFF782FE1EE000BFCA
:104F5000BC2B0208ECFB00080CFC0008F42B020838
:104F600008FC0008C52B0208F52B0208F32B0208E9
:104F7000C02B0208F82B0208B82B02080846FFF7DE
:104F800078FBA94A137803F0FE031370A64B1B7835
:104F900013F0010F05D0A54B1B6813B1294620461D
:104FA0009847A14B1B7813F0010F05D0A04B1B684D
:104FB00013B12946204698479B4B1B7813F0110FDD
:104FC00009D0994A137803F0FE031370994B1B68BC
:104FD00029462046984709B0BDE8F0830023964A49
:104FE0001370964A1370964A1360964A1360964A55
:104FF0001360964BD3F800804046FFF747FE002829
:1050000067D133781BB34FF0B05191F8043603F0F9
:105010003F0391F80526920102F47C62134391F854
:105020000326120302F4F832134391F800265204C7
:1050300002F47E0213433A6A1370854A1168096AC2
:10504000C3F3072048701268126A1B0C9370804EDD
:105050003368186A4CF006FF33689A6A127E12F0C1
:10506000050F4AD17A4E3368986A05304DF010FB2F
:1050700033681B6B1B8913F0010148D07F2242EA81
:10508000C3128DF81420002943D07F2213F00200B0
:1050900001D04FF4C060024309B14FF4C0710A431C
:1050A0001B0203F400631343C3F307238DF8153089
:1050B00000238DF816308DF817308DF818308DF8E4
:1050C00019308DF81A308DF81B3005A84CF0EEFE23
:1050D0003DE640464CF0C6FE5D4B1B689B6A1B7E5E
:1050E00013F0050FBED0594E0021306800F04EFA83
:1050F0000121306800F04AFAB4E70021186A00F094
:1051000045FA33680121186A00F040FAAAE73F2205
:10511000B5E73F22BAE74F4B00221A704C4B1B6891
:105120009B6A1B7E13F0050F02D04B4A00211170C1
:1051300013F00A0F02D0494B00221A70042008F025
:10514000B5FB474B1B68002B3FF420AF98471DE78A
:105150000846FFF7A1FC3E4B1B689B6A1B7E13F0C1
:10516000030F3FF413AF29462046FFF771FD0DE70B
:10517000374B1B689B6A1B7E13F0030F3FF406AF8F
:10518000487800F07BFBADF81C00C0F307202A78BC
:105190002B4B1A54FAE62E4B1B689B6A1B7E13F0AE
:1051A000030F3FF4F3AE487900F068FBADF814004C
:1051B000274B1B689B6A5B7F012B09D0EB78002B88
:1051C0007FF4E4AE9DF81530264A0121D154DDE686
:1051D0009DF815306978244AD154EFE71C4B1A68C2
:1051E000136B1B8913F0020F42D0AB7E002B44D10E
:1051F000EF7E2E7EA3B9936A1B7E13F0030F01D0BE
:10520000012E40D013F0020F03D0184B5B78002B17
:105210003DD10F4B1B689B6A1B7E13F0050F3AD1E3
:105220000C4B02221A70B1E6BC2B020804FC0008E9
:1052300000FC0008D8FB0008C42B0208F32B02086E
:10524000B82B0208C02B020808FC000848240008FC
:10525000ECFB0008F42B0208C52B0208F22B020815
:10526000E0FB0008002C0208D42B0208D02B020817
:105270002B782BB96F78AE78BCE700263746B9E7B4
:1052800000263746B6E7834A00211170BAE7824804
:1052900048F07AFABDE7384600F0F0FAADF81400AD
:1052A000C0F30720FF28BBD07C4B1E54B8E77C4BD3
:1052B00002221A706AE6FFF7CBFCD7E5754B022293
:1052C0001A7063E6734B00221A705FE6754B1B6819
:1052D0009B6ADB7E13F0020F30D1734B1B7813F007
:1052E000010F3FF453AE714B1B78012B29D0032BD8
:1052F0002BD0022B7FF44AAE6C4B00221A70694B04
:105300001B68DA686A4B1978162303FB01239A7924
:10531000002A3FF43BAE9B88002B3FF437AE654B31
:105320001B78002B7FF432AE012000F075F90028C5
:105330007FF42CAE5D4B01221A7027E6FFF788FC44
:10534000CBE75A4B02221A7020E6584B00221A7003
:105350001CE628786A78584911F8121088427FF4C0
:10536000D0AD032A3FF6DFAD544B07219954DAE55F
:105370002B78687843EA002000F0DAFBC4E5136973
:105380001E7C002E3FF4DEAD771C95F8018007FBF4
:1053900008F8D8689B6829783A4607FB01314044F1
:1053A00012F053FDDFF8FC90D9F800301B69D86883
:1053B000197C404400F0ACFCD9F800301B69DB6874
:1053C00046449B5D83423FF4BDAD3D4B1B680021CD
:1053D0003C489847D9F800301B69DB6868783A4642
:1053E000002107FB003012F054FDABE52D4B1B688C
:1053F0009A6AD37E13F002030AD00988ADF80C1024
:105400009DF80D10032903D82C48415C07291AD0B8
:105410002A88ADF814209DF81520032A02D82749C0
:1054200000208854E3B91F4B1B689B6A1B7E13F056
:10543000030F03D06B78244A0021D154294620461B
:10544000FFF706FCA2E5527F012AE1D12B88ADF8D7
:1054500010309DF81130032BE5D80121C154E2E74B
:105460002B78687843EA002000F062FBDBE70B88CA
:10547000ADF814300B4B1B689B6ADB8AADF8163015
:1054800005A84FF09DF881E5104A137843F0010319
:1054900013707BE5C52B0208D02B0208C82B02082D
:1054A000F42B0208ECFB0008BC2B0208F22B0208CC
:1054B000C62B0208C42B0208F82B0208C02B0208D6
:1054C000D8FB000804000100002C0208CC2B0208C5
:1054D00030B583B004460D46A0F5A0430C3B0B2B22
:1054E00034D8DFE803F0063331313133333331332D
:1054F00033350B891D4A1268926A928A934200D80A
:105500009BB912228DF80420ADF80230AB89ADF8BA
:10551000003001238DF8053068464FF045F8144AF5
:10552000137803F0FE03137010E0084600F056FAFB
:10553000014618B12846FFF737FB07E02946204609
:10554000FFF786FB0146F5E7FFF782FB03B030BDAE
:10555000064B1B681B691B7C23B929462046FFF7B5
:1055600077FBF3E7084600F0ADFAF6E7ECFB00083E
:10557000BC2B020818B1034A106000207047024893
:10558000704700BF18FC000801001600214B1B6883
:10559000002B3ED0F0B44FF0000C1EE01D4B1B68FA
:1055A0001B680CEB8C04A2001344DC68E77F1FE04F
:1055B0000126BB4208D23EB9E25C2AB10133E55C68
:1055C0001B2DF5D01344F4E7AEB90CF1010C114BCF
:1055D0001B689B6A5B7E634519D90029DED10D4BA0
:1055E0001B681B680CEB8C04A20013449C68E77FCB
:1055F00000231E46DDE701338279E2540022052AAA
:10560000E3D8D5180135865C66550132F7E7F0BC62
:1056100070477047ECFB0008F8B5022851D82C4BB6
:105620001B68002B50D02B4A1278002A4ED12A4AF0
:10563000117048BBDC68162202FB01F2A6189D68B7
:1056400001EB4107BC002544B6882E81DD689B68CC
:105650002344AD5A5D801E4B1D68EB681A44AB684D
:105660001C445388A3801D4B1870194B1B68986805
:1056700001EB41018B0018444BF09CFA034608BB38
:10568000144A012111701DE00128ECD1DC681622BA
:1056900002FB01F2A6189D6801EB4107BC002544FE
:1056A000B6892E81DD6815449B6823442D895D8071
:1056B000074B1D68EB681A44AB681C445389A380F0
:1056C000D1E7074B1846F8BD064BFBE7054BF9E75A
:1056D000ECFB0008F22B0208C62B0208C42B0208C0
:1056E00001001600FF00160010B50B4B1B78032BB2
:1056F00002D00A4C204610BD4BF04AFA0446084B33
:105700005B782BB9002CF5D1034B02221A70F1E71C
:10571000034848F039F8F5E7F42B0208FF001600BB
:10572000D02B02080A4B196811B10020034602E091
:105730000020704701330A6B92F820209A4206D964
:10574000044AD25C012AF5D90130C0B2F2E77047B1
:10575000ECFB0008C02B0208F8B5414B1D68002D7A
:1057600075D0022875D8AB6A5A7E8A4274D90C4625
:1057700006461B7E13F0010F06D0FFF7D3FF2B6BFD
:1057800093F82030984236D0364B1B78002B65D1E9
:10579000354B1C70002E3BD16B68C4EBC4014A0032
:1057A0009F18286804EB84018B001844B988018293
:1057B0006868296819444968805A08802849086837
:1057C00041680A4401680B445B6852885A80274B41
:1057D0001E70234B1B681868234B1B7803EB830355
:1057E0009A0010444BF014FA0346002832D11D4AA7
:1057F000012111702EE02B6804EB84018A00134410
:105800005B681B79023BDBB2012BBDD9184B21E051
:10581000012EDCD16B68C4EBC4014A009F182868D4
:1058200004EB84018B001844B98901826968114432
:105830002868184440680989018009490868416856
:105840000A4401680B445B6852895A80BFE7084BE1
:1058500000E0084B1846F8BD064BFBE7064BF9E79E
:10586000ECFB0008C52B0208F52B0208F32B0208FD
:105870000200160001001600FF00160010B584B0EB
:105880001D4B1B88ADF808301C4B196811B3002361
:1058900000E001330A6B92F820209A4216D9184A88
:1058A00032F81320ADF804209DF80520032AF0D823
:1058B000144CA25C012AECD9114A12F8132082423E
:1058C000E7D10F4A32F81330ADF808309DF80930AF
:1058D000FF2B0AD0BDF808300020DAB262F30700CF
:1058E0001B0A63F30F2004B010BD40F25961064853
:1058F00008F000F8EEE700BFA4B40110ECFB0008CC
:10590000F82B0208C02B0208A8B40110B8B100B5EA
:1059100083B00C4A10600C4B0C4A1A600C4B1B688D
:105920009A6900929B6A9A8AADF804205B8AADF866
:10593000063068464FF008FD03B05DF804FB0548EB
:10594000704700BF1CFC000804FC0008D154001084
:10595000ECFB000801001600F8B505464FF040FDCD
:10596000044680B91A4B1B686BB11E69377C57B16E
:1059700098692A8902EB82029100143901444A682D
:1059800012F0007F01D12046F8BD0A6950685B69BA
:10599000C31AE87B07FB00000344F068AA88296863
:1059A000184412F052FA0A4B1B689B6A1A7E12F0D6
:1059B000030FE8D05B7F012BE5D1EB7B054AD35C7D
:1059C000012BE0D1044A137843F002031370DAE7A5
:1059D000ECFB0008D42B0208CC2B020830B587B0B2
:1059E0000289194B1B681B689B889A4203D00025CB
:1059F000284607B030BD044601AB07C883E807005E
:105A0000A289ADF8122040228DF814200022ADF8B2
:105A100010201846FFF7A0FF054648B923681B78F9
:105A200013F0020F0AD0094B1B682146084898471B
:105A3000084A137803F0FE031370D9E7034B1B6881
:105A4000214605489847F3E71CFC0008D8FB0008EE
:105A500005000100BC2B020806000100038933B3D6
:105A6000174A12682AB3916A898A8B4223D870B583
:105A7000C17B146B94F82040A1421ED2956903EBC0
:105A800083039C00143C2C44636813F0007F0BD00C
:105A900015692E7C23695C685369E31A06FB0111C2
:105AA0001944EB685B5A23804FF068FC70BD0120FD
:105AB000704701207047012070470120F6E700BFC2
:105AC000ECFB0008438833B3184A12682AB3916A82
:105AD000898A8B4223D84178106B90F8200081424C
:105AE0001FD230B4946903EB830398001438204428
:105AF000436813F0007F16D01469257C0369586849
:105B00005369C31A05FB01111944E3685B5A03800A
:105B1000002030BC704701207047012070470120F1
:105B20007047012070470020F3E700BFECFB00083E
:105B300070B582B0ADF804003A4B1B68002B67D0FB
:105B4000DA6A002A67D09B6A002B66D0506800286A
:105B500065D09DF80460FF2E28D00024FF2100E0CE
:105B60000134304B1B689A6A127FA24219D9FF296F
:105B700017D1DB6A5B6804EB8402D50058195A59C7
:105B8000294B13F812309E42EAD12822002112F04C
:105B900080F9244B1B68DB6A5B68FF225A5121465F
:105BA000DEE7FF291BD0002000231BE01B7F03EB57
:105BB0008303DA00002112F06CF9002307E0D26AB7
:105BC000506803EB8301CA00FF2181500133154A5D
:105BD0001268916A097F9942F1D80020E4E71348DE
:105BE000E2E701330F4A1268126B92F820209A42C2
:105BF0000FD90D4A12F813109DF804209142F0D1EC
:105C0000094AFF2102F8131002EB43025170E8E742
:105C1000074802B070BD0648FBE70548F9E70448AD
:105C2000F7E700BFECFB0008F82B0208070016009E
:105C3000FF00160070B483B0ADF804000F4B1E686F
:105C4000C6B1B36A1C7F2046002300E00133A342A3
:105C500011D2A0420FD1F26A556803EB8301CA004A
:105C6000A958074A12F811109DF804209142EDD16D
:105C70001846EBE7002003B070BC7047ECFB00084F
:105C8000F82B020808B5FEF7F0FC034B1B680BB1BC
:105C900000B1984708BD00BF20FC000808B504F01B
:105CA000E5FD0A4B02229A67094B1B685B6B1B6878
:105CB000B3F90030002B07DB03F01F015B09012261
:105CC0008A40044941F8232008BD00BF00F03D4050
:105CD00024FC000800E100E00420704770B5C0B06B
:105CE00006460C4615464FF480720849684612F085
:105CF000ACF805E016F8012B6A401DF80250013C93
:105D0000002CF7D1284640B070BD00BFC0B40110D0
:105D100008B50022FFF7E2FF08BD0000154B1B6825
:105D20001B6B5B8CDAB21B0A012A0BD0022A0ED045
:105D3000012A11D00AB9382B16D0BAB9442B17D082
:105D40000020704763B1742BF0D1002070474BB135
:105D5000682BEDD1012070477C2BEBD102207047DE
:105D600000207047012070470320704700207047D3
:105D70000420704724FC0008034B1B6813B11B6B05
:105D8000187870470020704724FC000808B5FEF71B
:105D900074FC08BD2DE9F04FADF5097DB1F1805FD0
:105DA00010D2B1F1A05F03D38D189F4CA54209D941
:105DB0009E4CA14240F228818D1804F20124A54294
:105DC00000F22581039317460E468046984B5B6987
:105DD00013F0804F29D0964B5B6903F007030493BF
:105DE000022B18D00123059300230193914B019AB4
:105DF0009A423AD006F17046730A009326F4FF7473
:105E000024F001040021032005F0C8FD0028F9D189
:105E100005468246B4E0052008F09EFA0190864BC4
:105E20009842F8D001230593E0E7814A4FF61C73AE
:105E3000D25802F01F024FF0B05393F84037DBB254
:105E40009A4214BF01230023059304D00523049331
:105E500000230193CAE7012008F0CEFA0190764BA7
:105E60009842F8D005230493C0E74FF4D7717348E4
:105E700007F040FDBEE7002210E004F180521278E6
:105E800008A9CA5401340133B3F5007F15D2B442D6
:105E9000F3D3BD42F1D20028EDD0425D08A9CA5427
:105EA000B9F1000F07D104F180510978C9B29142CC
:105EB00001D04FF001090135E4E780466046B9F1B1
:105EC000000F5AD0039B002B4ED14FF0C80B069504
:105ED00007945D46DDF800B00BF50024640220460F
:105EE00004F00CFF8246013D012007F0F7FC0AF4A4
:105EF000A403B3F5A40F01D1002DEDD10294069DAA
:105F0000079C4F4B9A4507D0BAF1000F0BD04C4B72
:105F10009A4521D0484630E004F08EFF494B984224
:105F2000FAD08246F0E74FF0C80B5B46A3461C460A
:105F300008A9029804F084FF8246013C012007F082
:105F4000CDFC0AF4A403B3F5A40F03D1002CEFD1C8
:105F50005C46DCE75C46DAE704F06EFF394B9842BA
:105F6000FAD08246484608E0009B03F5002008A9C5
:105F7000400204F013FF82464846009B0133009321
:105F8000019B53B9BAF1000F07D1BD4205D24FF0C2
:105F900000094B468446404676E750BB002103206B
:105FA00005F03AFD0028F9D1019BABB9204B5B69A4
:105FB00013F0804F02D0049B022B1DD01C4B1B689A
:105FC00013F4000F08D1059B33B9002008F014FA30
:105FD0000190194B9842F8D0019B03BB1A4B9A458C
:105FE0001FD004339A451CD0BAF1000F12D01748C5
:105FF00011E007F08DFCD1E7022008F0ADF9019027
:106000000D4B9842F8D0D9E7DFF84CA0E6E7DFF86F
:1060100048A0E3E700200DF5097DBDE8F08F0C48AE
:10602000F9E70C48F7E700BF00800014FF070016EF
:10603000000026400300420004004200C0B50110E9
:106040000100500002005000020052001300160030
:1060500012001600010016000600520010B50024C0
:10606000084B1B6893F83A30A34206D9204606F045
:1060700055FE032803D00134F2E7002010BD0120B3
:10608000FCE700BF782C0208014B1868704700BF7E
:1060900010240008074BD3F8003503F00303012B4D
:1060A00005D0032B01D0002070470120704701204C
:1060B000704700BF00002640024BD3F8000500F0F7
:1060C0000300704700002640024BD3F81C05C00FA8
:1060D000704700BF0000264008B507F00BF908BD67
:1060E00070B504460D461646032005F0D3FC054B5B
:1060F000984205D032462946204607F047F870BD41
:106100000148FCE70101880003004A00431A002B04
:10611000B8BF5B4293422DD310B4184BD3F83C3533
:10612000C3F30903884216D9411A01EB5201B1FBAE
:10613000F2F29A1A1CD41148D0F83C1521F47F7160
:1061400021F00301C2F309042143C0F83C15981A59
:106150005DF8044B7047091A01EB5201B1FBF2F2F2
:106160001A4440F2FE318A42E5D940F2FF32E2E7BA
:106170000022E0E70023D81A704700BF0000264045
:1061800008B5034B1A684FF40041FFF7BFFF08BD85
:106190004C24000808B507F0A1FB08BD094B1B689B
:1061A0005B6B6BB11B685BB1B3F90030002B07DB95
:1061B00003F01F015B0901228A40034941F82320B3
:1061C000704700BF24FC000800E100E00B4B1B6897
:1061D0005B6B93B11B6883B1B3F90030002B0CDB10
:1061E00003F01F015B0901228A402033044941F872
:1061F0002320BFF34F8FBFF36F8F704724FC00083D
:1062000000E100E008B5FCF7B4F808BD08B5FCF7FC
:10621000B4F808BD08B507F069FF08BD08B500214E
:1062200007F01EFE08BD000048B108B5B1F5FD7FBE
:1062300007D20A4601230449FFF7ACFD08BD034815
:1062400070470248FAE700BF070800160100160071
:1062500048B108B5B1F5FD7F07D20A46044911F0EF
:10626000F4FD002008BD034870470248FAE700BF6C
:106270000708001601001600014B1860704700BFA8
:1062800024FC00080288AE2303FB02F3A3F26F3361
:10629000024AA2FB0323DB080B807047CDCCCCCC99
:1062A000B0F90020054B03FB02F3054A82FB030211
:1062B000DB17C3EB2233BD330B807047B5D7FFFF2D
:1062C000AD8BDB6870B504460D46074B1B684BB1C0
:1062D00098470646054B1B6813B129462046984748
:1062E000304670BD0026F5E72CFC000828FC0008AD
:1062F0001C4B1B6833B11C4B1B681B685A880389F5
:106300009A4200D070478388012BFBD103681B7829
:10631000022BF7D810B588B0044603AB07C883E852
:106320000700A289ADF81A200022ADF818204022FB
:106330008DF81C201846FFF70FFB80B9A389ADF834
:10634000043000238DF806300294064B1B6801A927
:1063500006489847064A137803F0FE03137008B006
:1063600010BD00BF30FC000834FC0008BF00010075
:10637000BC2B020800B587B000238DF817308DF8CC
:106380000E308DF80F300B4A126812685288ADF843
:1063900008200122ADF804200DF117020092ADF89B
:1063A0000C308DF810306846FFF7D6FA07B05DF86C
:1063B00004FB00BF34FC000808B580B245F20203BC
:1063C000984208D045F20E03984202D10846FFF7E2
:1063D0008FFF002008BDFFF7CDFFFAE748B108B5F1
:1063E000054A10600548FEF7FFFB054B054A1A6099
:1063F00008BD0548704700BF34FC0008C5620010A6
:106400002CFC0008B963001001001600014B186055
:10641000704700BF30FC00081AB3134618BB0129AF
:1064200001D01248704700B587B000228DF81220C5
:106430008DF813200E48006800684088ADF80C0005
:10644000ADF8081001938DF81420ADF8102001A8C4
:10645000FFF704FB18B1054807B05DF804FB002006
:10646000FAE7024870470148704700BF0100160074
:1064700034FC000800F1080343604FF0FF328260F3
:10648000C36003610023036070470023036170470A
:1064900043684B609A688A609A68516099600861A5
:1064A000036801330360704730B40D68B5F1FF3FF6
:1064B00002D000F1080202E0026904E01A465368C3
:1064C0001C68AC42FAD953684B6099608A6051608D
:1064D000086103680133036030BC70470369426898
:1064E000816891608268416851605A68824206D032
:1064F000002202611A68013A1A60186870478268BF
:106500005A60F5E7124A12F0070F1ED0D11D21F094
:106510000701C1F5404313440A460E4802600021BA
:1065200041601344083B23F007030B4803605960A4
:106530001960991A51601360084B1960084B196073
:10654000084B4FF000421A6070474FF44043E4E7B5
:106550003CFC000848BC010838FC000844BC0108A9
:1065600040BC01083CBC010810B4134B1A688242BD
:106570001BD359685C18844203D1406801445960B8
:10658000184641684418A24213D10C4C2468A24218
:106590000DD05268114441601A6812680260984236
:1065A00000D018605DF8044B70471346DEE70460C6
:1065B000F5E70260F3E700BF48BC010838FC0008BB
:1065C00070B5044601F0C2F83A4B1B68BBB13A4BB8
:1065D0001B681C4263D1ACB1083414F0070F11D012
:1065E00024F00704083404F007035BB14FF03F03C5
:1065F00083F31188BFF36F8FBFF34F8FFEE7FFF771
:1066000081FFE4E7002C4CD02C4B1B68A3424AD3FB
:106610002B4B1D6801E02B4615466A68A24202D248
:106620002A68002AF7D1234A1268AA423DD01E6880
:1066300008362A681A606B681B1B102B10D92819A2
:1066400010F0070F08D04FF03F0383F31188BFF31A
:106650006F8FBFF34F8FFEE743606C60FFF784FFDF
:106660006A6816490B689B1A0B60164909688B42C9
:1066700001D214490B60104B1B6813436B6000235D
:106680002B6001F0F1F816F0070F10D04FF03F0328
:1066900083F31188BFF36F8FBFF34F8FFEE70026A0
:1066A000EFE70026EDE70026EBE70026E9E73046B6
:1066B00070BD00BF38FC00083CBC010840BC0108AC
:1066C00048BC010844BC010880B338B50446A0F1B9
:1066D000080550F8042C164909680A4208D14FF001
:1066E0003F0383F31188BFF36F8FBFF34F8FFEE734
:1066F00050F8080C40B14FF03F0383F31188BFF30B
:106700006F8FBFF34F8FFEE722EA010244F8042C9B
:1067100001F01CF854F8041C064A13680B4413607B
:106720002846FFF721FF01F09FF838BD704700BFF2
:106730003CBC010840BC010882B0002301930D4B12
:106740001B68B3F1FF3F08D04FF03F0383F311887C
:10675000BFF36F8FBFF34F8FFEE74FF03F0383F31D
:106760001188BFF36F8FBFF34F8F019B002BFCD0BD
:1067700002B070475024000808480068006880F3A1
:1067800008884FF0000080F3148862B661B6BFF34A
:106790004F8FBFF36F8F00DF00BF000008ED00E0F8
:1067A000DFF80C00016841F47001016070470000DF
:1067B00088ED00E04FF0807340F8043C21F00101C7
:1067C00040F8081C054B40F80C3C40F8202C6FF0BA
:1067D000020340F8243C4438704700BF396700107A
:1067E000074B19680868B0E8F04F80F30988BFF3D9
:1067F0006F8F4FF0000080F311887047AFF3008077
:1068000058BC01084FF03F0383F31188BFF36F8F2B
